:10000000020AFAAD07C2AFC2B151E1E4FCED30E043
:1000100004D2B18002C2B1EDC313FD51E10CBC08A2
:09002000ECD2B1D2AF51E141E193
:10002B0041FD51927F647E00517BE4FF315D7F6423
:10003B007E00517BE4FF315D8E098F0A7F647E0069
:10004B00517B7F01315D7F647E00517B7F01315D90
:10005B008E0B8F0CE50A7004E509640470207FC8D1
:10006B007E00517B7F9911037F327E00517BAF0A5B
:10007B0011037F327E00517BAF0C110380E0E50C46
:10008B007004E50B640470207FC87E00517B7F9960
:10009B0011037F327E00517BAF0A11037F327E004A
:1000AB00517BAF0C110380E0740C250AF50A74FE2A
:1000BB003509F5097470250CF50C74FE350BF50B31
:1000CB007B007A007908751800751901E4FFFE3181
:1000DB00BAD3E508950EE50D6480F874809840035B
:1000EB00E4F5087590FF75B0FF30935D30945A209E
:1000FB0092267F057E00517B209256E50814600EF8
:10010B0014600F1460102403700E51B0800A51CD8F
:10011B00800651538002513020952EE50FB40129F2
:10012B000508D3E508950EE50D6480F874809840BA
:10013B0003E4F5087B007A0079087518007519013E
:10014B00E4FFFE31F57F05517BA295E433F50F807B
:10015B009822EFD3940740028050E4F5BDF5BEE53D
:10016B00BC54E044084FF5BC00000000E4FBE5BCC8
:10017B0030E43353BCEFE59730E509E5BD5403ADEF
:10018B00BEFC801DAFBD7C00AD07ED7E007802C3C9
:10019B0033CE33CED8F9FFE5BE5403FDEEFCEF4D65
:1001AB00FDAF05AE04220BBBFAC47E047F0022AD6B
:1001BB0007AC06C2AF75C78275C5018CC3AF058F7F
:1001CB00C475C65A75C6A500E5C271470DBD0001C1
:1001DB000C740129F9E43AFAE5191519700215188E
:1001EB0014451870D651EFD2AF22AD07AC06C2AF93
:1001FB0075C78275C5028CC3AF058FC47101F5C27B
:10020B0075C65A75C6A5000DBD00010C740129F900
:10021B00E43AFAE51915197002151814451870D639
:10022B0051EFD2AF22C2B22094FDAF0CAE0B517B7B
:10023B00C2B32093FDAF0AAE09517BD2B35177D233
:10024B00B23093FD3094FA22C2B22094FDAF0CAEC3
:10025B000B517BC2B32093FDAF0AAE09120273D2CE
:10026B00B33093FD3094FA22517BD2B27F1E7E00C5
:10027B007D9B7C03ED1D70011C144C70F7EF1F7000
:10028B00011E144E70EA22759D03E5BC549F442059
:10029B00F5BC43BC80439720D2ADD2BD43BC807F1D
:1002AB00C87E00417BC2B32093FDAF0AAE09517BE0
:1002BB00C2B22094FDAF0CAE0B120273D2B3E4FEAC
:1002CB00FF22C2B32093FDAF0AAE09517BD2B330EC
:1002DB0093FDE4FEFF227F5F7E00EF1F70011E1473
:1002EB004E70F722E4F5C7F5C5F5C675C3FF75C4A7
:1002FB00FF2253BCEF32BB010689828A83E0225076
:10030B0002E722BBFE02E32289828A83E49322BBAB
:10031B00010CE58229F582E5833AF583E02250064C
:10032B00E92582F8E622BBFE06E92582F8E222E502
:10033B008229F582E5833AF583E49322BB01068992
:10034B00828A83F0225002F722BBFE01F322020DB8
:10035B00000302090000020B000001120002100052
:05036B0000010F01007C
:100AFA00787FE4F6D8FD758119020B4102002DE4D6
:100B0A0093A3F8E493A34003F68001F208DFF4808C
:100B1A0029E493A3F85407240CC8C333C4540F44DC
:100B2A0020C8834004F456800146F6DFE4800B01B6
:100B3A0002040810204080900359E47E019360BCAF
:100B4A00A3FF543F30E509541FFEE493A360010E4E
:100B5A00CF54C025E060A840B8E493A3FAE493A375
:100B6A00F8E493A3C8C582C8CAC583CAF0A3C8C596
:0C0B7A0082C8CAC583CADFE9DEE780BE7E
:00000001FF
