:100000000205C1759D03E5BC549F4420F5BC43BC6B
:1000100080439720D2ADD2BD43BC807FC87E0061B3
:010020005C83
:06002300219553BCEF32F1
:10002B000125C2B32093FDAF0EAE0D715CD2B33080
:06003B0093FDE4FEFF222C
:10004300212611037F647E00715CE4B50E0AE50D81
:10005300B4040512034C80FBE4B5100AE50FB404A5
:100063000512034C80FB7B007A007908752A007522
:100073002B017F107E00519D7A007909752A007546
:100083002B017F11519D7A00790C752A00752B0184
:10009300E4FF519DD3E50C9512E5116480F874805B
:1000A300984003E4F50C7590FF75B0FF3093693009
:1000B30094662092287F057E00715C209264E50C93
:1000C30014600E14600F1460102403700E71C1804D
:1000D3000A112D800671738002719A71132095386D
:1000E300E51364017032050CD3E50C9512E5116438
:1000F30080F87480984003E4F50CE4FFFE71E57F1B
:1001030005715C7B007A00790C752A00752B01E47C
:10011300FFFE51D87F05715CA295E433F513515B63
:10012300808A22C0E0C083C082C0D075D000C007DF
:10013300E59A30E025539AFEE524701EE522C39428
:10014300804003752200AF22052274802FF582E4DC
:100153003400F583E59BF0752305E59A30E12853D8
:100163009AFDE51F6520601C7480251FF582E43429
:1001730001F583E0F59B051FE51FC39480400875D7
:100183001F008003752100D007D0D0D082D083D048
:10019300E032C0E0C083C082C0D075D000C0073059
:1001A3009824C298E51D701EE51BC3948040037517
:1001B3001B00AF1B051B74002FF582E43400F5838D
:1001C300E599F0751C05309927C299E51865196002
:1001D3001C74002518F582E43401F583E0F59905D4
:1001E30018E518C3948040087518008003751A0039
:1001F300D007D0D0D082D083D0E032EFD394074061
:10020300028050E4F5BDF5BEE5BC54E044084FF56B
:10021300BC00000000E4FBE5BC30E43353BCEFE575
:100223009730E509E5BD5403ADBEFC801DAFBD7C31
:1002330000AD07ED7E007802C333CE33CED8F9FF8D
:10024300E5BE5403FDEEFCEF4DFDAF05AE04220BFE
:10025300BBFAC47E047F0022E4FFFE71E57F0571D3
:100263005C7B007A007908752A00752B017F107E6C
:100273000051D87F05715C7A007909752A00752BC6
:10028300017F117E0051D87F05715C7A00790C756E
:100293002A00752B01E4FFFE41D8AD07AC06C2AFBF
:1002A30075C78275C5018CC3AF058FC475C65A75F2
:1002B300C6A500E5C291570DBD00010C740129F9D3
:1002C300E43AFAE52B152B7002152A14452A70D649
:1002D3009103D2AF22AD07AC06C2AF75C78275C515
:1002E300028CC3AF058FC49111F5C275C65A75C68A
:1002F300A5000DBD00010C740129F9E43AFAE52BC0
:10030300152B7002152A14452A70D69103D2AF22F9
:10031300E4FF31FE7158E4FF31FE8E0D8F0E7158EC
:100323007F0131FE71587F0131FE8E0F8F10C3E5BF
:100333000E9508F50EE50D9400F50DC3E51095092E
:10034300F510E50F9400F50F227FC87E00715C7FE6
:10035300327E00715C7F327E007D9B7C03ED1D70DD
:10036300011C144C70F7EF1F70011E144E70EA222B
:10037300C2B22094FDAF10AE0F715CC2B32093FDE7
:10038300AF0EAE0D715CD2B27F1E7E00715CD2B334
:100393003093FD3094FA22C2B22094FDAF10AE0F19
:1003A300715CC2B32093FDAF0EAE0D715CD2B37F0F
:1003B3001E7E00715CD2B23093FD3094FA22C2B338
:1003C3002093FDAF0EAE0D715CC2B22094FDAF1051
:1003D300AE0F715CD2B27F1E7E00715CD2B3E4FEBD
:1003E300FF22AD07AC06C2AF8CC3AF058FC475C780
:1003F3008275C50375C65A75C6A5009103D2AF228F
:10040300E4F5C7F5C5F5C675C3FF75C4FF22BB0187
:100413000689828A83E0225002E722BBFE02E3229E
:1004230089828A83E49322BB010CE58229F582E564
:10043300833AF583E0225006E92582F8E622BBFEE3
:1004430006E92582F8E222E58229F582E5833AF579
:1004530083E49322BB010689828A83F0225002F748
:1004630022BBFE01F32275F008758200EF2FFFEE29
:1004730033FECD33CDCC33CCC58233C5829BED9ACD
:10048300EC99E58298400CF582EE9BFEED9AFDEC2B
:1004930099FC0FD5F0D6E4CEFBE4CDFAE4CCF9A871
:1004A3008222B800C1B90059BA002DEC8BF084CF79
:1004B300CECDFCE5F0CBF97818EF2FFFEE33FEED50
:1004C30033FDEC33FCEB33FB10D703994004EB997A
:1004D300FB0FD8E5E4F9FA227818EF2FFFEE33FE8D
:1004E300ED33FDEC33FCC933C910D7059BE99A40C2
:1004F30007EC9BFCE99AF90FD8E0E4C9FAE4CCFBDA
:100503002275F010EF2FFFEE33FEED33FDCC33CC2D
:10051300C833C810D7079BEC9AE899400AED9BFDB6
:10052300EC9AFCE899F80FD5F0DAE4CDFBE4CCFAC9
:10053300E4C8F922EB9FF5F0EA9E42F0E99D42F010
:10054300E89C45F022E8600FECC313FCED13FDEECD
:1005530013FEEF13FFD8F122BB010DE58229F582CB
:10056300E5833AF5830205985007E92582F80205E9
:100573008BBBFE07E92582F80205A4E58229F582F3
:10058300E5833AF5830205B1E6FB08E6F908E6FAE6
:1005930008E6CBF822E0F8A3E0F9A3E0FAA3E0FB36
:1005A30022E2FB08E2F908E2FA08E2CBF822E4933C
:1005B300F8740193F9740293FA740393FB22787F1E
:1005C300E4F6D8FD75812B020608020045E493A3E7
:1005D300F8E493A34003F68001F208DFF48029E4F2
:1005E30093A3F85407240CC8C333C4540F4420C83E
:1005F300834004F456800146F6DFE4800B010204D5
:10060300081020408090064DE47E019360BCA3FF58
:10061300543F30E509541FFEE493A360010ECF5409
:10062300C025E060A840B8E493A3FAE493A3F8E4F8
:1006330093A3C8C582C8CAC583CAF0A3C8C582C864
:10064300CAC583CADFE9DEE780BE02110003020DDB
:100653000000020F00000116000214000001130144
:010663000096
:00000001FF
