:1000000002032DC2B22094FDAF2BAE2A519BC2B386
:100010002093FDAF29AE28120293D2B33093FD3066
:0900200094FA22411853BCEF329E
:10002B000125759103E4F592F5B2F5B151B27F2C30
:10003B00800BE4B5290FE528B4040A7FF47E015147
:10004B009B514580EDE4B52B0FE52AB4040A7FF4F0
:10005B007E01519B514580EDC3E5299458E52894C9
:10006B0002500675280275298AC3E52B9458E52A98
:10007B0094025006752A02752B8A74A82529F52936
:10008B0074FD3528F52874A8252BF52B74FD352A1E
:10009B00F52A7B007A007925750D00750E01E4FFBA
:1000AB00FE31A2D3E525952FE52E6480F874809858
:1000BB004003E4F525E525C394005003E4F52575CD
:1000CB0090FF30936D30946A7F057E00519B209298
:1000DB0023E52514600E14600F1460102403700EBA
:1000EB0051EE800A710B8006110380025170209231
:1000FB00033092FD20953BE530640170350525D327
:10010B00E525952FE52E6480F87480984003E4F57F
:10011B0025E4FFFE51D07F0A519B7B007A007925A5
:10012B00750D00750E01E4FFFE31DD7F64519B758B
:10013B00C760A295E433F5308088EFD39407400273
:10014B008050E4F5BDF5BEE5BC54E044084FF5BC6A
:10015B0000000000E4FBE5BC30E43353BCEFE59753
:10016B0030E509E5BD5403ADBEFC801DAFBD7C0081
:10017B00AD07ED7E007802C333CE33CED8F9FFE561
:10018B00BE5403FDEEFCEF4DFDAF05AE04220BBBE1
:10019B00FAC47E047F0022AD07AC06C2AF75C782DE
:1001AB0075C5018CC3AF058FC475C65A75C6A5003E
:1001BB00E5C271FF0DBD00010C740129F9E43AFA97
:1001CB00E50E150E7002150D14450D70D6711FD26C
:1001DB00AF22AD07AC06C2AF75C78275C5028CC323
:1001EB00AF058FC471B9F5C275C65A75C6A5000D9A
:1001FB00BD00010C740129F9E43AFAE50E150E70F5
:10020B0002150D14450D70D6711FD2AF22C0E0C080
:10021B00D075D000C000C007309904C299C200301D
:10022B00980FC298AF27052774342FF8A699532738
:10023B000FD007D000D0D0D0E032E4FF31457F3271
:10024B007E00519BE4FF31458E288F297F327E0043
:10025B00519B7F0131457F327E00519B7F013145A0
:10026B008E2A8F2B22C2B22094FDAF2BAE2A519B2C
:10027B00C2B32093FDAF29AE28519BD2B35197D275
:10028B00B23093FD3094FA22519BD2B27F1E7E0086
:10029B007D9B7C03ED1D70011C144C70F7EF1F70E0
:1002AB00011E144E70EA22759D03E5BC549F442039
:1002BB00F5BC43BC80439720D2ADD2BD43BC807FFD
:1002CB00C87E00419BAD07AC06C2AF8CC3AF058F98
:1002DB00C475C78275C50375C65A75C6A500711F4F
:1002EB00D2AF22C2B32093FDAF29AE28519BC2B22D
:1002FB002094FDAF2BAE2A120293D2B3E4FEFF2261
:10030B00C2B32093FDAF29AE28519BD2B33093FDDE
:10031B00E4FEFF22E4F5C7F5C5F5C675C3FF75C44A
:10032B00FF22787FE4F6D8FD75810E02037402007C
:10033B002DE493A3F8E493A34003F68001F208DFC6
:10034B00F48029E493A3F85407240CC8C333C45492
:10035B000F4420C8834004F456800146F6DFE48046
:10036B000B0102040810204080900411E47E0193DD
:10037B0060BCA3FF543F30E509541FFEE493A36018
:10038B00010ECF54C025E060A840B8E493A3FAE473
:10039B0093A3F8E493A3C8C582C8CAC583CAF0A3C4
:1003AB00C8C582C8CAC583CADFE9DEE780BEBB0108
:1003BB000689828A83E0225002E722BBFE02E322F7
:1003CB0089828A83E49322BB010CE58229F582E5BD
:1003DB00833AF583E0225006E92582F8E622BBFE3C
:1003EB0006E92582F8E222E58229F582E5833AF5D2
:1003FB0083E49322BB010689828A83F0225002F7A1
:10040B0022BBFE01F322022E000302280000022A67
:10041B00000001330002310000013001012D010009
:00000001FF
