:10000000020329AD07C2AFC2B17109E4FCED30E0D3
:1000100004D2B18002C2B1EDC313FD71090CBC085A
:09002000ECD2B1D2AF7109610903
:10002B006125519C7F647E005185E4FF31677F64BD
:10003B007E005185E4FF31678E098F0A7F647E0055
:10004B0051857F0131677F647E0051857F01316768
:10005B008E0B8F0CE50A7004E509640470207FC8D1
:10006B007E0051857F9911037F327E005185AF0A47
:10007B0011037F327E005185AF0C110380E0E50C3C
:10008B007004E50B640470207FC87E0051857F9956
:10009B0011037F327E005185AF0A11037F327E0040
:1000AB005185AF0C110380E0740C250AF50A74FE20
:1000BB003509F5097470250CF50C74FE350BF50B31
:1000CB007B007A007908751800751901E4FFFE3181
:1000DB00C4D3E508950EE50D6480F8748098400351
:1000EB00E4F5087590FF75B0FF309367309464208A
:1000FB0092267F057E005185209260E50814600EE4
:10010B0014600F1460102403700E51D8800A51F53F
:10011B008006515D8002513A209538E50F640170DD
:10012B00320508D3E508950EE50D6480F8748098C8
:10013B004003E4F508E4FFFE51BA7F0551857B00CF
:10014B007A007908751800751901E4FFFE31FF7FFD
:10015B00055185A295E433F50F808E22EFD39407DA
:10016B0040028050E4F5BDF5BEE5BC54E044084FB9
:10017B00F5BC00000000E4FBE5BC30E43353BCEFFE
:10018B00E59730E509E5BD5403ADBEFC801DAFBD61
:10019B007C00AD07ED7E007802C333CE33CED8F9A9
:1001AB00FFE5BE5403FDEEFCEF4DFDAF05AE0422A3
:1001BB000BBBFAC47E047F0022AD07AC06C2AF7541
:1001CB00C78275C5018CC3AF058FC475C65A75C67A
:1001DB00A500E5C271FB0DBD00010C740129F9E40A
:1001EB003AFAE51915197002151814451870D671DD
:1001FB0017D2AF22AD07AC06C2AF75C78275C50269
:10020B008CC3AF058FC471B5F5C275C65A75C6A53B
:10021B00000DBD00010C740129F9E43AFAE519153A
:10022B00197002151814451870D67117D2AF22C267
:10023B00B22094FDAF0CAE0B5185C2B32093FDAF32
:10024B000AAE095185D2B35181D2B23093FD3094AD
:10025B00FA22C2B22094FDAF0CAE0B5185C2B32073
:10026B0093FDAF0AAE0912027DD2B33093FD3094E9
:10027B00FA225185D2B27F1E7E007D9B7C03ED1D41
:10028B0070011C144C70F7EF1F70011E144E70EAB6
:10029B0022759D03E5BC549F4420F5BC43BC8043B1
:1002AB009720D2ADD2BD43BC807FC87E004185ADC7
:1002BB0007AC06C2AF8CC3AF058FC475C78275C5BB
:1002CB000375C65A75C6A5007117D2AF22C2B320EB
:1002DB0093FDAF0AAE095185C2B22094FDAF0CAEAF
:1002EB000B12027DD2B3E4FEFF22C2B32093FDAF0B
:1002FB000AAE095185D2B33093FDE4FEFF227F5F36
:10030B007E00EF1F70011E144E70F722E4F5C7F547
:10031B00C5F5C675C3FF75C4FF2253BCEF32787F9A
:10032B00E4F6D8FD75811902037002002DE493A346
:10033B00F8E493A34003F68001F208DFF48029E48C
:10034B0093A3F85407240CC8C333C4540F4420C8D8
:10035B00834004F456800146F6DFE4800B0102046F
:10036B00081020408090040DE47E019360BCA3FF35
:10037B00543F30E509541FFEE493A360010ECF54A4
:10038B00C025E060A840B8E493A3FAE493A3F8E493
:10039B0093A3C8C582C8CAC583CAF0A3C8C582C8FF
:1003AB00CAC583CADFE9DEE780BEBB010689828A44
:1003BB0083E0225002E722BBFE02E32289828A837A
:1003CB00E49322BB010CE58229F582E5833AF583A0
:1003DB00E0225006E92582F8E622BBFE06E92582DB
:1003EB00F8E222E58229F582E5833AF583E493224C
:1003FB00BB010689828A83F0225002F722BBFE01E1
:10040B00F322020D000302090000020B000001128F
:09041B000002100000010F0100B5
:00000001FF
