:10000000020AF4AD07C2AFC2B151DBE4FCED30E04F
:1000100004D2B18002C2B1EDC313FD51DB0CBC08A8
:09002000ECD2B1D2AF51DB41DB9F
:10002B0041F7518C7F647E005175E4FF31577F643B
:10003B007E005175E4FF31578E098F0A7F647E0075
:10004B0051757F0131577F647E0051757F013157A8
:10005B008E0B8F0C740C250AF50A74FE3509F50905
:10006B007470250CF50C74FE350BF50BE50A70045A
:10007B00E509640470207FC87E0051757F991103D8
:10008B007F327E005175AF0A11037F327E005175AE
:10009B00AF0C110380E0E50C7004E50B64047020D9
:1000AB007FC87E0051757F9911037F327E00517599
:1000BB00AF0A11037F327E005175AF0C110380E044
:1000CB007B007A007908751800751901E4FFFE3181
:1000DB00B4C3E508950EE50D6480F8748098500262
:1000EB008001C34003E4F5087590FF75B0FF3093B2
:1000FB005230944F2092267F057E00517520924BF3
:10010B00E50814600E14600F1460102403700E5178
:10011B00AA800A51C78006514D8002512A2095238F
:10012B007F057E005175209522E50FB401157B00EC
:10013B007A007908751800751901E4FFFE31EF7F1D
:10014B00055175A295E433F50F80A322EFD39407E5
:10015B0040028050E4F5BDF5BEE5BC54E044084FC9
:10016B00F5BC00000000E4FBE5BC30E43353BCEF0E
:10017B00E59730E509E5BD5403ADBEFC801DAFBD71
:10018B007C00AD07ED7E007802C333CE33CED8F9B9
:10019B00FFE5BE5403FDEEFCEF4DFDAF05AE0422B3
:1001AB000BBBFAC47E047F0022AD07AC06C2AF7551
:1001BB00C78275C5018CC3AF058FC475C65A75C68A
:1001CB00A500E5C271410DBD00010C740129F9E4D4
:1001DB003AFAE51915197002151814451870D6510D
:1001EB00E9D2AF22AD07AC06C2AF75C78275C502A7
:1001FB008CC3AF058FC451FBF5C275C65A75C6A526
:10020B00000DBD00010C740129F9E43AFAE519154A
:10021B00197002151814451870D651E9D2AF22C2C5
:10022B00B22094FDAF0CAE0B5175C2B32093FDAF52
:10023B000AAE095175D2B35171D2B23093FD3094DD
:10024B00FA22C2B22094FDAF0CAE0B5175C2B32093
:10025B0093FDAF0AAE0912026DD2B33093FD309409
:10026B00FA225175D2B27F1E7E007D9B7C03ED1D61
:10027B0070011C144C70F7EF1F70011E144E70EAC6
:10028B0022759D03E5BC549F4420F5BC43BC8043C1
:10029B009720D2ADD2BD43BC807FC87E004175C2D2
:1002AB00B32093FDAF0AAE095175C2B22094FDAFD6
:1002BB000CAE0B12026DD2B3E4FEFF22C2B320933D
:1002CB00FDAF0AAE095175D2B33093FDE4FEFF22A8
:1002DB007F5F7E00EF1F70011E144E70F722E4F556
:1002EB00C7F5C5F5C675C3FF75C4FF2253BCEF3206
:1002FB00BB010689828A83E0225002E722BBFE0201
:10030B00E32289828A83E49322BB010CE58229F5DF
:10031B0082E5833AF583E0225006E92582F8E6224E
:10032B00BBFE06E92582F8E222E58229F582E58308
:10033B003AF583E49322BB010689828A83F022502B
:10034B0002F722BBFE01F322020D0004020900009A
:0F035B00020B000001120002100000010F010050
:100AF400787FE4F6D8FD758119020B3B02002DE4E2
:100B040093A3F8E493A34003F68001F208DFF48092
:100B140029E493A3F85407240CC8C333C4540F44E2
:100B240020C8834004F456800146F6DFE4800B01BC
:100B340002040810204080900353E47E019360BCBB
:100B4400A3FF543F30E509541FFEE493A360010E54
:100B5400CF54C025E060A840B8E493A3FAE493A37B
:100B6400F8E493A3C8C582C8CAC583CAF0A3C8C59C
:0C0B740082C8CAC583CADFE9DEE780BE84
:00000001FF
