:1000000002032EC2B22094FDAF2BAE2A519CC2B384
:100010002093FDAF29AE28120294D2B33093FD3065
:0900200094FA22411953BCEF329D
:10002B000125759103E4F592F5B2F5B151B37F2C2F
:10003B00800BE4B5290FE528B4040A7FF47E015147
:10004B009C514680EDE4B52B0FE52AB4040A7FF4EE
:10005B007E01519C514680EDC3E5299458E52894C7
:10006B0002500675280275298AC3E52B9458E52A98
:10007B0094025006752A02752B8A74A82529F52936
:10008B0074FD3528F52874A8252BF52B74FD352A1E
:10009B00F52A7B007A007925750D00750E01E4FFBA
:1000AB00FE31A3D3E525952FE52E6480F874809857
:1000BB004003E4F525E525C394005003E4F52575CD
:1000CB0090FF3093683094657F057E00519C2092A1
:1000DB0021E52D601DE52514600E14600F146010D2
:1000EB002403700E51EF800A710C800611038002FD
:1000FB005171209538E530640170320525D3E52523
:10010B00952FE52E6480F87480984003E4F525E480
:10011B00FFFE51D17F05519C7B007A007925750D2F
:10012B0000750E01E4FFFE31DE7F05519CA295E4C4
:10013B0033F530A292E433F52D8087EFD39407404B
:10014B00028050E4F5BDF5BEE5BC54E044084FF524
:10015B00BC00000000E4FBE5BC30E43353BCEFE52E
:10016B009730E509E5BD5403ADBEFC801DAFBD7CEA
:10017B0000AD07ED7E007802C333CE33CED8F9FF46
:10018B00E5BE5403FDEEFCEF4DFDAF05AE04220BB7
:10019B00BBFAC47E047F0022AD07AC06C2AF75C7A5
:1001AB008275C5018CC3AF058FC475C65A75C6A5BC
:1001BB0000E5C291000DBD00010C740129F9E43A70
:1001CB00FAE50E150E7002150D14450D70D6712043
:1001DB00D2AF22AD07AC06C2AF75C78275C5028C14
:1001EB00C3AF058FC471BAF5C275C65A75C6A500E3
:1001FB000DBD00010C740129F9E43AFAE50E150E58
:10020B007002150D14450D70D67120D2AF22C0E0CF
:10021B00C0D075D000C000C007309904C299C2008D
:10022B0030980FC298AF27052774342FF8A699532F
:10023B00270FD007D000D0D0D0E032E4FF31467F7B
:10024B00327E00519CE4FF31468E288F297F327E0F
:10025B0000519C7F0131467F327E00519C7F0131E2
:10026B00468E2A8F2B22C2B22094FDAF2BAE2A5181
:10027B009CC2B32093FDAF29AE28519CD2B35198A9
:10028B00D2B23093FD3094FA22519CD2B27F1E7EB3
:10029B00007D9B7C03ED1D70011C144C70F7EF1F50
:1002AB0070011E144E70EA22759D03E5BC549F44E9
:1002BB0020F5BC43BC80439720D2ADD2BD43BC805C
:1002CB007FC87E00419CAD07AC06C2AF8CC3AF05A7
:1002DB008FC475C78275C50375C65A75C6A50071DF
:1002EB0020D2AF22C2B32093FDAF29AE28519CC2BE
:1002FB00B22094FDAF2BAE2A120294D2B3E4FEFFD0
:10030B0022C2B32093FDAF29AE28519CD2B33093B8
:10031B00FDE4FEFF22E4F5C7F5C5F5C675C3FF7511
:10032B00C4FF22787FE4F6D8FD75810E02037502B7
:10033B00002DE493A3F8E493A34003F68001F208A5
:10034B00DFF48029E493A3F85407240CC8C333C407
:10035B00540F4420C8834004F456800146F6DFE472
:10036B00800B0102040810204080900412E47E01EF
:10037B009360BCA3FF543F30E509541FFEE493A3E5
:10038B0060010ECF54C025E060A840B8E493A3FAF7
:10039B00E493A3F8E493A3C8C582C8CAC583CAF083
:1003AB00A3C8C582C8CAC583CADFE9DEE780BEBB66
:1003BB00010689828A83E0225002E722BBFE02E318
:1003CB002289828A83E49322BB010CE58229F58280
:1003DB00E5833AF583E0225006E92582F8E622BB55
:1003EB00FE06E92582F8E222E58229F582E5833AC9
:1003FB00F583E49322BB010689828A83F0225002A3
:10040B00F722BBFE01F322022E000302280000029A
:10041B002A000001330002310000013001012D01DF
:01042B0000D0
:00000001FF
