:10000000020352C2B22094FDAF2BAE2A51A6C2B356
:100010002093FDAF29AE2812029ED2B33093FD305B
:0900200094FA22412353BCEF3293
:10002B000125759103E4F592F5B2F5B151BD7F2C25
:10003B00800BE4B5290FE528B4040A7FF47E015147
:10004B00A6515080EDE4B52B0FE52AB4040A7FF4DA
:10005B007E0151A6515080EDC3E5299458E52894B3
:10006B0002500675280275298AC3E52B9458E52A98
:10007B0094025006752A02752B8A74A82529F52936
:10008B0074FD3528F52874A8252BF52B74FD352A1E
:10009B00F52A7B007A007925750D00750E01E4FFBA
:1000AB00FE31ADD3E525952FE52E6480F87480984D
:1000BB004003E4F525E525C394005003E4F52575CD
:1000CB0090FFE4F52530936E30946B20922DE52D47
:1000DB00640170277F05FE51A6209268E525146008
:1000EB000E14600F1460102403700E51F9800A7106
:1000FB0030800611038002517B7116209538E53054
:10010B00640170320525D3E525952FE52E6480F823
:10011B007480984003E4F525E4FFFE51DB7F055125
:10012B00A67B007A007925750D00750E01E4FFFEA4
:10013B0031E87F0551A6A295E433F530A292E43362
:10014B00F52D808122EFD3940740028050E4F5BD5A
:10015B00F5BEE5BC54E044084FF5BC00000000E4DC
:10016B00FBE5BC30E43353BCEFE59730E509E5BD67
:10017B005403ADBEFC801DAFBD7C00AD07ED7E0012
:10018B007802C333CE33CED8F9FFE5BE5403FDEE70
:10019B00FCEF4DFDAF05AE04220BBBFAC47E047F12
:1001AB000022AD07AC06C2AF75C78275C5018CC303
:1001BB00AF058FC475C65A75C6A500E5C291240D4F
:1001CB00BD00010C740129F9E43AFAE50E150E7025
:1001DB0002150D14450D70D67144D2AF22AD07AC8C
:1001EB0006C2AF75C78275C5028CC3AF058FC471CC
:1001FB00DEF5C275C65A75C6A5000DBD00010C749F
:10020B000129F9E43AFAE50E150E7002150D1445A5
:10021B000D70D67144D2AF22C0E0C0D075D000C0F3
:10022B0000C007309904C299C20030980FC298AF32
:10023B0027052774342FF8A69953270FD007D00022
:10024B00D0D0D0E032E4FF31507F327E0051A6E4B3
:10025B00FF31508E288F297F327E0051A67F0131CE
:10026B00507F327E0051A67F0131508E2A8F2B2278
:10027B00C2B22094FDAF2BAE2A51A6C2B32093FD80
:10028B00AF29AE2851A6D2B351A2D2B23093FD30D2
:10029B0094FA2251A6D2B27F1E7E007D9B7C03ED89
:1002AB001D70011C144C70F7EF1F70011E144E7063
:1002BB00EA22759D03E5BC549F4420F5BC43BC80EA
:1002CB00439720D2ADD2BD43BC807FC87E0041A6F0
:1002DB00AD07AC06C2AF8CC3AF058FC475C78275B3
:1002EB00C50375C65A75C6A5007144D2AF22C2B3F9
:1002FB002093FDAF29AE2851A6C2B22094FDAF2B9F
:10030B00AE2A12029ED2B3E4FEFF22E4FFFE51DBC3
:10031B007F0551A67B007A007925750D00750E01BE
:10032B00E4FFFE21E8C2B32093FDAF29AE2851A60E
:10033B00D2B33093FDE4FEFF22E4F5C7F5C5F5C655
:10034B0075C3FF75C4FF22787FE4F6D8FD75810E67
:10035B0002039902002DE493A3F8E493A34003F660
:10036B008001F208DFF48029E493A3F85407240CEE
:10037B00C8C333C4540F4420C8834004F4568001CF
:10038B0046F6DFE4800B0102040810204080900445
:10039B0036E47E019360BCA3FF543F30E509541F44
:1003AB00FEE493A360010ECF54C025E060A840B8D3
:1003BB00E493A3FAE493A3F8E493A3C8C582C8CA51
:1003CB00C583CAF0A3C8C582C8CAC583CADFE9DE24
:1003DB00E780BEBB010689828A83E0225002E722B6
:1003EB00BBFE02E32289828A83E49322BB010CE5E4
:1003FB008229F582E5833AF583E0225006E92582CE
:10040B00F8E622BBFE06E92582F8E222E58229F511
:10041B0082E5833AF583E49322BB010689828A83C2
:10042B00F0225002F722BBFE01F322022E00030240
:10043B00280000022A0000013300023100000130C5
:05044B0001012D01007C
:00000001FF
