:100000000202FAC2B22094FDAF10AE0F51C4C2B3C7
:100010002093FD51C0D2B27F1E7E0051C4D2B330B6
:0A00200093FD3094FA2253BCEF3236
:10002B000126759103E4F592F5B2F5B151847F2C5D
:10003B00800BE4B50E0FE50DB4040A7FF47E01517D
:10004B00C4511580EDE4B5100FE50FB4040A7FF42D
:10005B007E0151C4511580EDC3E50E9458E50D9406
:10006B00025006750D02750E8AC3E5109458E50F04
:10007B0094025006750F0275108A74A8250EF50EA2
:10008B0074FD350DF50D74A82510F51074FD350FA5
:10009B00F50F7B007A00790C751D00751E01E4FFCE
:1000AB00FE319FD3E50C9513E5126480F8748098AC
:1000BB004003E4F50CE50CC394005003E4F50C7518
:1000CB0090FF30932F30942C7F057E0051C42092EB
:1000DB0023E50C14600E14600F1460102403700ED3
:1000EB005163800A51DB800611038002514020923C
:1000FB00033092FD2095CB7F0A7E0051C42095C220
:10010B00050CD3E50C9513E5126480F874809840C8
:10011B0003E4F50CE4FFFE51A27F6451C47B007A2B
:10012B0000790C751D00751E01E4FFFE31DA7F644A
:10013B0051C475C760808BEFD3940740028050E4A5
:10014B00F5BDF5BEE5BC54E044084FF5BC0000001E
:10015B0000E4FBE5BC30E43353BCEFE59730E50935
:10016B00E5BD5403ADBEFC801DAFBD7C00AD07EDFE
:10017B007E007802C333CE33CED8F9FFE5BE5403ED
:10018B00FDEEFCEF4DFDAF05AE04220BBBFAC47EBA
:10019B00047F0022AD07AC06C2AF75C78275C501DF
:1001AB008CC3AF058FC475C65A75C6A500E5C27161
:1001BB00CC0DBD00010C740129F9E43AFAE51E15CA
:1001CB001E7002151D14451D70D651ECD2AF22AD19
:1001DB0007AC06C2AF75C78275C5028CC3AF058F5E
:1001EB00C47186F5C275C65A75C6A5000DBD000152
:1001FB000C740129F9E43AFAE51E151E7002151D5F
:10020B0014451D70D651ECD2AF22E4FF31427F3240
:10021B007E0051C4E4FF31428E0D8F0E7F327E0083
:10022B0051C47F0131427F327E0051C47F01314284
:10023B008E0F8F1022C2B22094FDAF10AE0F51C49F
:10024B00C2B32093FD51C0D2B37F1E7E0051C4D2E6
:10025B00B23093FD3094FA22C2B32093FD1202C048
:10026B00C2B22094FDAF10AE0F51C4D2B27F327E1A
:10027B000051C4D2B3E4FEFF22759D03E5BC549F2D
:10028B004420F5BC43BC80439720D2ADD2BD43BCC8
:10029B00807FC87E0041C4AD07AC06C2AF8CC3AF34
:1002AB00058FC475C78275C50375C65A75C6A5007B
:1002BB0051ECD2AF22AF0EAE0D7D9B7C03ED1D70CA
:1002CB00011C144C70F7EF1F70011E144E70EA22C4
:1002DB00C2B32093FD1202C0D2B33093FDE4FEFFF4
:1002EB0022E4F5C7F5C5F5C675C3FF75C4FF2278C3
:1002FB007FE4F6D8FD75811E02034102002DE493C5
:10030B00A3F8E493A34003F68001F208DFF48029FD
:10031B00E493A3F85407240CC8C333C4540F4420EC
:10032B00C8834004F456800146F6DFE4800B0102DB
:10033B000408102040809003DEE47E019360BCA390
:10034B00FF543F30E509541FFEE493A360010ECF29
:10035B0054C025E060A840B8E493A3FAE493A3F853
:10036B00E493A3C8C582C8CAC583CAF0A3C8C58213
:10037B00C8CAC583CADFE9DEE780BEBB0106898236
:10038B008A83E0225002E722BBFE02E32289828AA3
:10039B0083E49322BB010CE58229F582E5833AF5D0
:1003AB0083E0225006E92582F8E622BBFE06E9250A
:1003BB0082F8E222E58229F582E5833AF583E4931C
:1003CB0022BB010689828A83F0225002F722BBFEF0
:1003DB0001F32202120003020D0000020F000001C4
:0D03EB0017000215000001140101110100AE
:00000001FF
