:10000000020AE8AD07C2AFC2B151CFE4FCED30E067
:1000100004D2B18002C2B1EDC313FD51CF0CBC08B4
:09002000ECD2B1D2AF51CF41CFB7
:10002B0041EB51807F647E005169E4FF314B7F646B
:10003B007E005169E4FF314B8E098F0A7F647E008D
:10004B0051697F01314B7F647E0051697F01314BD8
:10005B008E0B8F0CE50A7004E509640470207FC8D1
:10006B007E0051697F9911037F327E005169AF0A7F
:10007B0011037F327E005169AF0C110380E0E50C58
:10008B007004E50B640470207FC87E0051697F9972
:10009B0011037F327E005169AF0A11037F327E005C
:1000AB005169AF0C110380E0740C250AF50A74FE3C
:1000BB003509F5097470250CF50C74FE350BF50B31
:1000CB007B007A007908751800751901E4FFFE3181
:1000DB00A8D3E508950EE50D6480F874809840036D
:1000EB00E4F5087590FF75B0FF30934B30944820C2
:1000FB0092267F057E005169209244E50814600E1C
:10010B0014600F1460102403700E519E800A51BBB3
:10011B00800651418002511E20951CE50FB401173A
:10012B0005087B007A007908751800751901E4FF42
:10013B00FE31E37F055169A295E433F50F80AA22C6
:10014B00EFD3940740028050E4F5BDF5BEE5BC54F7
:10015B00E044084FF5BC00000000E4FBE5BC30E4D4
:10016B003353BCEFE59730E509E5BD5403ADBEFC59
:10017B00801DAFBD7C00AD07ED7E007802C333CE92
:10018B0033CED8F9FFE5BE5403FDEEFCEF4DFDAFCA
:10019B0005AE04220BBBFAC47E047F0022AD07AC74
:1001AB0006C2AF75C78275C5018CC3AF058FC47509
:1001BB00C65A75C6A500E5C271350DBD00010C749C
:1001CB000129F9E43AFAE5191519700215181445C5
:1001DB001870D651DDD2AF22AD07AC06C2AF75C7D2
:1001EB008275C5028CC3AF058FC451EFF5C275C6BE
:1001FB005A75C6A5000DBD00010C740129F9E43A2E
:10020B00FAE51915197002151814451870D651DD39
:10021B00D2AF22C2B22094FDAF0CAE0B5169C2B368
:10022B002093FDAF0AAE095169D2B35165D2B230FA
:10023B0093FD3094FA22C2B22094FDAF0CAE0B5159
:10024B0069C2B32093FDAF0AAE09120261D2B3307B
:10025B0093FD3094FA225169D2B27F1E7E007D9BB2
:10026B007C03ED1D70011C144C70F7EF1F70011E09
:10027B00144E70EA22759D03E5BC549F4420F5BCD7
:10028B0043BC80439720D2ADD2BD43BC807FC87E98
:10029B00004169C2B32093FDAF0AAE095169C2B2E6
:1002AB002094FDAF0CAE0B120261D2B3E4FEFF2221
:1002BB00C2B32093FDAF0AAE095169D2B33093FD9F
:1002CB00E4FEFF227F5F7E00EF1F70011E144E7055
:1002DB00F722E4F5C7F5C5F5C675C3FF75C4FF2254
:1002EB0053BCEF32BB010689828A83E0225002E7BE
:1002FB0022BBFE02E32289828A83E49322BB010C98
:10030B00E58229F582E5833AF583E0225006E9255B
:10031B0082F8E622BBFE06E92582F8E222E5822975
:10032B00F582E5833AF583E49322BB010689828A41
:10033B0083F0225002F722BBFE01F322020D0003D1
:10034B0002090000020B0000011200021000000164
:03035B000F01008F
:100AE800787FE4F6D8FD758119020B2F02002DE4FA
:100AF80093A3F8E493A34003F68001F208DFF4809F
:100B080029E493A3F85407240CC8C333C4540F44EE
:100B180020C8834004F456800146F6DFE4800B01C8
:100B280002040810204080900347E47E019360BCD3
:100B3800A3FF543F30E509541FFEE493A360010E60
:100B4800CF54C025E060A840B8E493A3FAE493A387
:100B5800F8E493A3C8C582C8CAC583CAF0A3C8C5A8
:0C0B680082C8CAC583CADFE9DEE780BE90
:00000001FF
