:100000000201AEAD07AC06C2AF8CC3AF058FC4759D
:10001000C78275C50375C65A75C6A500120495D268
:02002000AF220D
:0700230002048553BCEF321B
:10002B0002002675910FE4F592F5B2F5B11204209A
:10003B007F2C800BE4B50E11E50DB4040C7FF47E20
:10004B00011204431202EF80EBE4B51011E50FB47B
:10005B00040C7FF47E011204431202EF80EBC3E524
:10006B000E9458E50D94025006750D02750E8AC359
:10007B00E5109458E50F94025006750F0275108A1F
:10008B0074A8250EF50E74FD350DF50D74A825100D
:10009B00F51074FD350FF50F7B007A00790C752682
:1000AB0000752701E4FFFE120337D3E50C9515E528
:1000BB00146480F87480984003E4F50CE50CC39449
:1000CB00005003E4F50C7590FF75985075D7E875E3
:1000DB00D6FF758E14438E01D2AC850E11E50DF54E
:1000EB00137FFF1204A3AF111204A37FFF1204A30B
:1000FB00AF131204A37FF01204A37FF01204A385A5
:10010B001011E50FF513AF111204A37FF01204A326
:10011B00AF131204A37FAA1204A37FAA1204A33065
:10012B00953430CC317F057E00120443209427E5B3
:10013B000C14600F1460111460132403701212035B
:10014B00FD800D12047480081203B180031203D7D3
:10015B002094033094FD20CDC67F0A7E0012044309
:10016B0020CDBC050CD3E50C9515E5146480F87413
:10017B0080984003E4F50CE4FFFE1200037F647EDD
:10018B00001204437B007A00790C75260075270159
:10019B00E4FFFE1203747F647E0012044375C76094
:1001AB0002012A787FE4F6D8FD7581190201F50268
:1001BB00002EE493A3F8E493A34003F68001F20826
:1001CB00DFF48029E493A3F85407240CC8C333C489
:1001DB00540F4420C8834004F456800146F6DFE4F4
:1001EB00800B010204081020408090045AE47E0129
:1001FB009360BCA3FF543F30E509541FFEE493A367
:10020B0060010ECF54C025E060A840B8E493A3FA78
:10021B00E493A3F8E493A3C8C582C8CAC583CAF004
:10022B00A3C8C582C8CAC583CADFE9DEE780BEEFB3
:10023B00D3940740028050E4F5BDF5BEE5BC54E015
:10024B0044084FF5BC00000000E4FBE5BC30E43390
:10025B0053BCEFE59730E509E5BD5403ADBEFC801B
:10026B001DAFBD7C00AD07ED7E007802C333CE33EE
:10027B00CED8F9FFE5BE5403FDEEFCEF4DFDAF0507
:10028B00AE04220BBBFAC47E047F0022BB0106899D
:10029B00828A83E0225002E722BBFE02E32289829C
:1002AB008A83E49322BB010CE58229F582E5833A2C
:1002BB00F583E0225006E92582F8E622BBFE06E92B
:1002CB002582F8E222E58229F582E5833AF583E47B
:1002DB009322BB010689828A83F0225002F722BB4C
:1002EB00FE01F3227F0212023A7F327E0012044398
:1002FB007F0212023A8E0D8F0E7F327E0012044364
:10030B007F0312023A7F327E001204437F031202F4
:10031B003A8E0F8F10E50E25E0F50EE50D33F50D3A
:10032B00E51025E0F510E50F33F50F22AD07AC0610
:10033B00C2AF75C78275C5018CC3AF058FC475C6B7
:10034B005A75C6A500E5C21202DD0DBD00010C7485
:10035B000129F9E43AFAE527152770021526144509
:10036B002670D5120495D2AF22AD07AC06C2AF757D
:10037B00C78275C5028CC3AF058FC4120297F5C235
:10038B0075C65A75C6A5000DBD00010C740129F97F
:10039B00E43AFAE52715277002152614452670D581
:1003AB00120495D2AF22C2B220CCFDAF10AE0F1209
:1003BB000443C2B32095FD12043FD2B27F1E7E00D0
:1003CB00120443D2B33095FD30CCFA22C2B220CC0A
:1003DB00FDAF10AE0F120443C2B32095FD12043FC4
:1003EB00D2B37F1E7E00120443D2B23095FD30CCC7
:1003FB00FA22C2B32095FD12043FC2B220CCFDAF4E
:10040B0010AE0F120443D2B27F327E00120443D2DD
:10041B00B3E4FEFF22759D0CE5BC549F4420F5BC54
:10042B0043BC80439720D2ADD2BD43BC807FC87EF6
:10043B0000020443AF0EAE0D7D9B7C03ED1D7001DE
:10044B001C144C70F7EF1F70011E144E70EA220241
:10045B00140003020D0000020F0000011900021727
:10046B00000001160101120100C2B32095FD120418
:10047B003FD2B33095FDE4FEFF22309805C298853C
:10048B009980309904C299C20032E4F5C7F5C5F5DD
:10049B00C675C3FF75C4FF222000FDEFD200F5998E
:0104AB00222E
:00000001FF
