:0E000000020B6353BCEF32B290323202058421
:03001B0002000AD6
:10002B00020003C2B22094FDC28CAF1AAE191205A6
:10003B00C8C2B32093FD1205C4D2B32093FD7F50E9
:0E004B007E001205C8D2B23093FD3094FA2226
:10006300020007AD07EDD3940240037F0122ED6048
:10007300030200FAC28C900002120352B40104D2AC
:10008300A98002C2A9900001120352B40104D2B99B
:100093008002C2B9120339FED3940340037F0222C4
:1000A300E58954FC4EF589900003120352FFB40115
:1000B30003538E7FEF7003438E80EFB402054389B1
:1000C3000480035389FB900004120352B4010543D7
:1000D3008F018003538FFE900005120391E5F0F525
:1000E3008C900005120391F58A900007120352B415
:1000F3000102D28C7F0022ED64016003020185C2FC
:100103008E900002120352B40104D2AB8002C2AB40
:10011300900001120352B40104D2BB8002C2BB128D
:100123000339FEC3940340037F0222E58954CF4E73
:10013300F589900003120352FFB40103538EBFEFFE
:100143007003438E40EFB402054389408003538913
:10015300BF900004120352B40105438F028003537E
:100163008FFD900005120391E5F0F58D90000512C7
:100173000391F58B900007120352B40102D28E7FD4
:100183000022ED64027074538EEF9000021203524A
:10019300B4010543AF04800353AFFB900003120384
:1001A30052FED3940240037F0222EEB40103538E26
:1001B300FB9000031203527003438E04900003125A
:1001C3000352B40205438E088003538EF790000454
:1001D300120352B40105438F048003538FFB900035
:1001E30005120391FDACF0ECF5D68DD79000071204
:1001F3000352B40103438E107F00227F02227591C4
:1002030003E4F59275B280F5B175B0FF7590FF12F6
:1002130005A37F2C800CE518B40C11E517B4020C70
:100223007FF47E011205C812042680EAE51AB40C95
:1002330011E519B4020C7FF47E011205C8120426DD
:1002430080EA7B007A007916752B00752C01E4FF98
:10025300FE120478D3E5169521E5206480F87480B6
:10026300984003E4F516E516C394005003E4F5162D
:10027300E4F50EF50A750B01750C01F50EF511F594
:100283000DFB7A00790AFF120066758CC3758A50DC
:100293007590FFC290C291D2B7D2AFE4F514F515B1
:1002A3003093463094437F057E001205C82092396F
:1002B300C28C758CC3758A50D28CE51614601214E7
:1002C3006014146016146018240470171205428019
:1002D300121205F9800D1204F2800812051A800328
:1002E30012002E2092033092FD2095B47F0A7E00E7
:1002F3001205C82095AA0516D3E5169521E52064B5
:1003030080F87480984003E4F516E4FFFE12056557
:100313007F647E001205C87B007A007916752B0076
:10032300752C01E4FFFE1204B57F647E001205C83C
:1003330075C7600202A3BB010689828A83E022504B
:1003430002E722BBFE02E32289828A83E49322BB73
:10035300010CE58229F582E5833AF583E022500614
:10036300E92582F8E622BBFE06E92582F8E222E5CA
:100373008229F582E5833AF583E49322BB0106895A
:10038300828A83F0225002F722BBFE01F322BB01D3
:1003930010E58229F582E5833AF583E0F5F0A3E0E1
:1003A300225009E92582F886F008E622BBFE0AE915
:1003B3002582F8E2F5F008E222E5832AF583E99342
:1003C300F5F0A3E99322EFD3940740028050E4F5BC
:1003D300BDF5BEE5BC54E044084FF5BC0000000089
:1003E300E4FBE5BC30E43353BCEFE59730E509E5C6
:1003F300BD5403ADBEFC801DAFBD7C00AD07ED7EDB
:10040300007802C333CE33CED8F9FFE5BE5403FDE3
:10041300EEFCEF4DFDAF05AE04220BBBFAC47E0428
:100423007F0022E4FF1203C98E1C8F1D7F327E00E2
:100433001205C8E4FF1203C98E1C8F1DE51D240C91
:10044300F518E51C34FEF5177F327E001205C87FD0
:10045300011203C98E1C8F1D7F327E001205C87FD7
:10046300011203C98E1C8F1DE51D240CF51AE51C12
:1004730034FEF51922AD07AC06C2AF75C78275C548
:10048300018CC3AF058FC475C65A75C6A500E5C2F6
:1004930012037F0DBD00010C740129F9E43AFAE55A
:1004A3002C152C7002152B14452B70D512060AD26D
:1004B300AF22AD07AC06C2AF75C78275C5028CC348
:1004C300AF058FC4120339F5C275C65A75C6A500A8
:1004D3000DBD00010C740129F9E43AFAE52C152C41
:1004E3007002152B14452B70D512060AD2AF22C207
:1004F300B22094FDC28CAF1AAE191205C8C2B32044
:1005030093FD1205C4D2B27F1E7E001205C8D2B37A
:100513003093FD3094FA22C2B22094FDC28CAF1AFC
:10052300AE191205C8C2B32093FD1205C4D2B37F1E
:100533001E7E001205C8D2B23093FD3094FA22C257
:10054300B32093FD1205C2C2B22094FDAF1AAE19B7
:100553001205C8D2B27F327E001205C8D2B3E4FEC0
:10056300FF22AD07AC06C2AF8CC3AF058FC475C7FE
:100573008275C50375C65A75C6A50012060AD2AFA1
:1005830022C0E0C0D00515E51570020514C394E838
:10059300E51464809483400375C760D0D0D0E03203
:1005A300759D03E5BC549F4420F5BC43BC80439731
:1005B30020D2ADD2BD43BC807FC87E000205C8C235
:1005C3008CAF18AE177D9B7C03ED1D70011C144C82
:1005D30070F7EF1F70011E144E70EA220220000410
:1005E3000217000002190000012500022300000188
:1005F3002201011B0100C2B32093FD1205C2D2B335
:100603003093FDE4FEFF22E4F5C7F5C5F5C675C3D7
:05061300FF75C4FF2289
:100B6300787FE4F6D8FD75812C020BAA020201E41A
:100B730093A3F8E493A34003F68001F208DFF48023
:100B830029E493A3F85407240CC8C333C4540F4473
:100B930020C8834004F456800146F6DFE4800B014D
:100BA300020408102040809005DFE47E019360BCBE
:100BB300A3FF543F30E509541FFEE493A360010EE5
:100BC300CF54C025E060A840B8E493A3FAE493A30C
:100BD300F8E493A3C8C582C8CAC583CAF0A3C8C52D
:0C0BE30082C8CAC583CADFE9DEE780BE15
:00000001FF
