:0E000000020B5D53BCEF32B290323202057E2D
:03001B0002000AD6
:10002B00020003C2B220CCFDC28CAF1AAE1912056E
:10003B00C2C2B32095FD1205BED2B32095FD7F50F1
:0E004B007E001205C2D2B23095FD30CCFA22F2
:10006300020007AD07EDD3940240037F0122ED6048
:10007300030200FAC28C90000212034CB40104D2B2
:10008300A98002C2A990000112034CB40104D2B9A1
:100093008002C2B9120333FED3940340037F0222CA
:1000A300E58954FC4EF58990000312034CFFB4011B
:1000B30003538E7FEF7003438E80EFB402054389B1
:1000C3000480035389FB90000412034CB4010543DD
:1000D3008F018003538FFE90000512038BE5F0F52B
:1000E3008C90000512038BF58A90000712034CB421
:1000F3000102D28C7F0022ED64016003020185C2FC
:100103008E90000212034CB40104D2AB8002C2AB46
:1001130090000112034CB40104D2BB8002C2BB1293
:100123000333FEC3940340037F0222E58954CF4E79
:10013300F58990000312034CFFB40103538EBFEF04
:100143007003438E40EFB402054389408003538913
:10015300BF90000412034CB40105438F0280035384
:100163008FFD90000512038BE5F0F58D90000512CD
:10017300038BF58B90000712034CB40102D28E7FE0
:100183000022ED64027074538EEF90000212034C50
:10019300B4010543AF04800353AFFB900003120384
:1001A3004CFED3940240037F0222EEB40103538E2C
:1001B300FB90000312034C7003438E049000031260
:1001C300034CB40205438E088003538EF79000045A
:1001D30012034CB40105438F048003538FFB90003B
:1001E3000512038BFDACF0ECF5D68DD7900007120A
:1001F300034CB40103438E107F00227F02227591CA
:100203000FE4F59275B280F5B112059D7F2C800C39
:10021300E518B40C11E517B4020C7FF47E01120546
:10022300C212042080EAE51AB40C11E519B4020CD9
:100233007FF47E011205C212042080EA7B007A005B
:100243007916752B00752C01E4FFFE120472D3E5B9
:10025300169521E5206480F87480984003E4F51630
:10026300E516C394005003E4F516E4F50EF50A759C
:100273000B01750C01F50EF511F50DFB7A00790AEA
:10028300FF120066758CC3758A507590FFC290C2C9
:1002930091D2B7D2AFE4F514F51530954630CC437F
:1002A3007F057E001205C2209439C28C758CC375FC
:1002B3008A50D28CE516146012146014146016145C
:1002C30060182404701712053C80121205F3800D88
:1002D3001204EC8008120514800312002E209403EC
:1002E3003094FD20CDB47F0A7E001205C220CDAA32
:1002F3000516D3E5169521E5206480F874809840AF
:1003030003E4F516E4FFFE12055F7F647E00120529
:10031300C27B007A007916752B00752C01E4FFFE71
:100323001204AF7F647E001205C275C76002029D8E
:10033300BB010689828A83E0225002E722BBFE02C8
:10034300E32289828A83E49322BB010CE58229F5A7
:1003530082E5833AF583E0225006E92582F8E62216
:10036300BBFE06E92582F8E222E58229F582E583D0
:100373003AF583E49322BB010689828A83F02250F3
:1003830002F722BBFE01F322BB0110E58229F582AD
:10039300E5833AF583E0F5F0A3E0225009E92582ED
:1003A300F886F008E622BBFE0AE92582F8E2F5F0BA
:1003B30008E222E5832AF583E993F5F0A3E9932282
:1003C300EFD3940740028050E4F5BDF5BEE5BC547D
:1003D300E044084FF5BC00000000E4FBE5BC30E45A
:1003E3003353BCEFE59730E509E5BD5403ADBEFCDF
:1003F300801DAFBD7C00AD07ED7E007802C333CE18
:1004030033CED8F9FFE5BE5403FDEEFCEF4DFDAF4F
:1004130005AE04220BBBFAC47E047F00227F0212C6
:1004230003C38E1C8F1D7F327E001205C27F021212
:1004330003C38E1C8F1DE51D240CF518E51C34FE2B
:10044300F5177F327E001205C27F031203C38E1C91
:100453008F1D7F327E001205C27F031203C38E1CE1
:100463008F1DE51D240CF51AE51C34FEF51922AD8C
:1004730007AC06C2AF75C78275C5018CC3AF058FC4
:10048300C475C65A75C6A500E5C21203790DBD0031
:10049300010C740129F9E43AFAE52C152C700215C4
:1004A3002B14452B70D5120604D2AF22AD07AC0630
:1004B300C2AF75C78275C5028CC3AF058FC4120363
:1004C30033F5C275C65A75C6A5000DBD00010C747F
:1004D3000129F9E43AFAE52C152C7002152B144581
:1004E3002B70D5120604D2AF22C2B220CCFDC28C2F
:1004F300AF1AAE191205C2C2B32095FD1205BED2C2
:10050300B27F1E7E001205C2D2B33095FD30CCFA05
:1005130022C2B220CCFDC28CAF1AAE191205C2C2E0
:10052300B32095FD1205BED2B37F1E7E001205C215
:10053300D2B23095FD30CCFA22C2B32095FD12051C
:10054300BCC2B220CCFDAF1AAE191205C2D2B27F23
:10055300327E001205C2D2B3E4FEFF22AD07AC0621
:10056300C2AF8CC3AF058FC475C78275C50375C68B
:100573005A75C6A500120604D2AF22C0E0C0D0054A
:1005830015E51570020514C394B8E5146480948BC3
:10059300400375C760D0D0D0E032759D0CE5BC54E4
:1005A3009F4420F5BC43BC80439720D2ADD2BD43CA
:1005B300BC807FC87E000205C2C28CAF18AE177D17
:1005C3009B7C03ED1D70011C144C70F7EF1F700131
:1005D3001E144E70EA2202200004021700000219C2
:1005E300000001250002230000012201011B01007C
:1005F300C2B32095FD1205BCD2B33095FDE4FEFFD6
:0F06030022E4F5C7F5C5F5C675C3FF75C4FF2220
:100B5D00787FE4F6D8FD75812C020BA4020201E426
:100B6D0093A3F8E493A34003F68001F208DFF48029
:100B7D0029E493A3F85407240CC8C333C4540F4479
:100B8D0020C8834004F456800146F6DFE4800B0153
:100B9D00020408102040809005D9E47E019360BCCA
:100BAD00A3FF543F30E509541FFEE493A360010EEB
:100BBD00CF54C025E060A840B8E493A3FAE493A312
:100BCD00F8E493A3C8C582C8CAC583CAF0A3C8C533
:0C0BDD0082C8CAC583CADFE9DEE780BE1B
:00000001FF
