:0E000000020B3753BCEF32B290323202055879
:03001B0002000AD6
:10002B00020003C2B22094FDC28CAF1AAE191205A6
:10003B009CC2B32093FD120598D2B32093FD7F5041
:0E004B007E0012059CD2B23093FD3094FA2252
:10006300020007AD07EDD3940240037F0122ED6048
:10007300030200FAC28C900002120326B40104D2D8
:10008300A98002C2A9900001120326B40104D2B9C7
:100093008002C2B912030DFED3940340037F0222F0
:1000A300E58954FC4EF589900003120326FFB40141
:1000B30003538E7FEF7003438E80EFB402054389B1
:1000C3000480035389FB900004120326B401054303
:1000D3008F018003538FFE900005120365E5F0F551
:1000E3008C900005120365F58A900007120326B46D
:1000F3000102D28C7F0022ED64016003020185C2FC
:100103008E900002120326B40104D2AB8002C2AB6C
:10011300900001120326B40104D2BB8002C2BB12B9
:10012300030DFEC3940340037F0222E58954CF4E9F
:10013300F589900003120326FFB40103538EBFEF2A
:100143007003438E40EFB402054389408003538913
:10015300BF900004120326B40105438F02800353AA
:100163008FFD900005120365E5F0F58D90000512F3
:100173000365F58B900007120326B40102D28E7F2C
:100183000022ED64027074538EEF90000212032676
:10019300B4010543AF04800353AFFB900003120384
:1001A30026FED3940240037F0222EEB40103538E52
:1001B300FB9000031203267003438E049000031286
:1001C3000326B40205438E088003538EF790000480
:1001D300120326B40105438F048003538FFB900061
:1001E30005120365FDACF0ECF5D68DD79000071230
:1001F3000326B40103438E107F00227F02227591F0
:1002030003E4F59275B280F5B11205777F2C7E0178
:1002130012059C1203FA7B007A007916752B007580
:100223002C01E4FFFE12044CD3E5169521E520646E
:1002330080F87480984003E4F516E516C3940050E3
:1002430003E4F516E4F50EF50A750B01750C01F5DB
:100253000EF511F50DFB7A00790AFF120066758C15
:10026300C3758A507590FFC290C291D2B7D2AFE4E2
:10027300F514F5153093463094437F057E0012053F
:100283009C209239C28C758CC3758A50D28CE5162A
:100293001460121460141460161460182404701788
:1002A30012051680121205CD800D1204C6800812A5
:1002B30004EE800312002E2092033092FD2095B4A9
:1002C3007F0A7E0012059C2095AA0516D3E5169594
:1002D30021E5206480F87480984003E4F516E4FF78
:1002E300FE1205397F647E0012059C7B007A00793B
:1002F30016752B00752C01E4FFFE1204897F647EC2
:100303000012059C75C760020277BB010689828AC9
:1003130083E0225002E722BBFE02E32289828A8322
:10032300E49322BB010CE58229F582E5833AF58348
:10033300E0225006E92582F8E622BBFE06E9258283
:10034300F8E222E58229F582E5833AF583E49322F4
:10035300BB010689828A83F0225002F722BBFE0189
:10036300F322BB0110E58229F582E5833AF583E0A8
:10037300F5F0A3E0225009E92582F886F008E62289
:10038300BBFE0AE92582F8E2F5F008E222E5832ABA
:10039300F583E993F5F0A3E99322EFD394074002A1
:1003A3008050E4F5BDF5BEE5BC54E044084FF5BC10
:1003B30000000000E4FBE5BC30E43353BCEFE597F9
:1003C30030E509E5BD5403ADBEFC801DAFBD7C0027
:1003D300AD07ED7E007802C333CE33CED8F9FFE507
:1003E300BE5403FDEEFCEF4DFDAF05AE04220BBB87
:1003F300FAC47E047F0022E4FF12039D8E1C8F1D2E
:100403007F327E0012059CE4FF12039D8E1C8F1D1C
:10041300E51D240CF518E51C34FEF5177F327E002C
:1004230012059C7F0112039D8E1C8F1D7F327E005F
:1004330012059C7F0112039D8E1C8F1DE51D240C4C
:10044300F51AE51C34FEF51922AD07AC06C2AF75EB
:10045300C78275C5018CC3AF058FC475C65A75C6EF
:10046300A500E5C21203530DBD00010C740129F967
:10047300E43AFAE52C152C7002152B14452B70D594
:100483001205DED2AF22AD07AC06C2AF75C78275C7
:10049300C5028CC3AF058FC412030DF5C275C65ACE
:1004A30075C6A5000DBD00010C740129F9E43AFAE3
:1004B300E52C152C7002152B14452B70D51205DE77
:1004C300D2AF22C2B22094FDC28CAF1AAE1912056C
:1004D3009CC2B32093FD120598D2B27F1E7E0012F8
:1004E300059CD2B33093FD3094FA22C2B22094FD1E
:1004F300C28CAF1AAE1912059CC2B32093FD12052C
:1005030098D2B37F1E7E0012059CD2B23093FD3089
:1005130094FA22C2B32093FD120596C2B22094FD31
:10052300AF1AAE1912059CD2B27F327E0012059C1F
:10053300D2B3E4FEFF22AD07AC06C2AF8CC3AF0556
:100543008FC475C78275C50375C65A75C6A50012D3
:1005530005DED2AF22C0E0C0D00515E51570020557
:1005630014C394B8E5146480948B400375C760D0BA
:10057300D0D0E032759D0CE5BC549F4420F5BC43BC
:10058300BC80439720D2ADD2BD43BC807FC87E00E0
:1005930002059CC28CAF18AE177D9B7C03ED1D70CA
:1005A300011C144C70F7EF1F70011E144E70EA22E9
:1005B30002200004021700000219000001250002B6
:1005C300230000012201011B0100C2B32093FD128D
:1005D3000596D2B33093FDE4FEFF22E4F5C7F5C5DB
:0905E300F5C675C3FF75C4FF22C3
:100B3700787FE4F6D8FD75812C020B7E020201E472
:100B470093A3F8E493A34003F68001F208DFF4804F
:100B570029E493A3F85407240CC8C333C4540F449F
:100B670020C8834004F456800146F6DFE4800B0179
:100B7700020408102040809005B3E47E019360BC16
:100B8700A3FF543F30E509541FFEE493A360010E11
:100B9700CF54C025E060A840B8E493A3FAE493A338
:100BA700F8E493A3C8C582C8CAC583CAF0A3C8C559
:0C0BB70082C8CAC583CADFE9DEE780BE41
:00000001FF
