:10000000020134AD07AC06C2AF8CC3AF058FC47517
:10001000C78275C50375C65A75C6A5001203F4D20A
:02002000AF220D
:070023000203E453BCEF32BD
:10002B0002002675910FE4F592F5B2F5B112037942
:10003B007F2C800BE4B50E11E50DB4040C7FF47E20
:10004B000112039E1202CA80EBE4B51011E50FB446
:10005B00040C7FF47E0112039E1202CA80EB7B001C
:10006B007A00790C752600752701E4FFFE12021841
:10007B00D3E50C9515E5146480F87480984003E47F
:10008B00F50CE50CC394005003E4F50C7590FF756B
:10009B00985075D7E875D6FF758E14438E01D2AC88
:1000AB00AF1212040230953430CC317F057E001232
:1000BB00039E209427E50C14600F14601114601339
:1000CB0024037012120356800D1203CF8008120303
:1000DB0002800312032C2094033094FD20CDC67FA5
:1000EB000A7E0012039E20CDBC050CD3E50C9515A2
:1000FB00E5146480F87480984003E4F50CE4FFFE8B
:10010B001200037F647E0012039E7B007A00790C41
:10011B00752600752701E4FFFE1202557F647E00F1
:10012B0012039E75C7600200B0787FE4F6D8FD75A8
:10013B00811902017B02002EE493A3F8E493A34000
:10014B0003F68001F208DFF48029E493A3F8540747
:10015B00240CC8C333C4540F4420C8834004F45642
:10016B00800146F6DFE4800B01020408102040807A
:10017B009003B5E47E019360BCA3FF543F30E509C7
:10018B00541FFEE493A360010ECF54C025E060A87A
:10019B0040B8E493A3FAE493A3F8E493A3C8C5820D
:1001AB00C8CAC583CAF0A3C8C582C8CAC583CADF7B
:1001BB00E9DEE780BEBB010689828A83E02250021A
:1001CB00E722BBFE02E32289828A83E49322BB01EE
:1001DB000CE58229F582E5833AF583E0225006E9A6
:1001EB002582F8E622BBFE06E92582F8E222E582AB
:1001FB0029F582E5833AF583E49322BB01068982D4
:10020B008A83F0225002F722BBFE01F322AD07AC2A
:10021B0006C2AF75C78275C5018CC3AF058FC47598
:10022B00C65A75C6A500E5C21202060DBD00010C2B
:10023B00740129F9E43AFAE52715277002152614FB
:10024B00452670D51203F4D2AF22AD07AC06C2AF70
:10025B0075C78275C5028CC3AF058FC41201C0F57B
:10026B00C275C65A75C6A5000DBD00010C740129D7
:10027B00F9E43AFAE527152770021526144526707E
:10028B00D51203F4D2AF22EFD3940740037F0022A1
:10029B00E4F5BDF5BEE5BC54E044084FF5BC0000E9
:1002AB000000E4FFE5BC30E40F53BCEFE597AEBDB7
:1002BB0030E502AEBEAF06220FBFFAE87F00227F09
:1002CB00021202921203987F021202928F12EF75A2
:1002DB00F005A485F00DF50E12039A7F031202921E
:1002EB001203987F03120292120398E51275F00520
:1002FB00A485F00FF51022C2B220CCFDAF10AE0FCB
:10030B0012039EC2B32095FDAF0EAE0D12039ED20B
:10031B00B27F1E7E0012039ED2B33095FD30CCFA15
:10032B0022C2B220CCFDAF10AE0F12039EC2B3207F
:10033B0095FDAF0EAE0D12039ED2B37F1E7E001243
:10034B00039ED2B23095FD30CCFA22C2B32095FD7C
:10035B00AF0EAE0D12039EC2B220CCFDAF10AE0F8E
:10036B0012039ED2B212039AD2B3E4FEFF22759D02
:10037B000CE5BC549F4420F5BC43BC80439720D272
:10038B00ADD2BD43BC807FC87E0002039E8F127F1F
:10039B00327E007D9B7C03ED1D70011C144C70F7AD
:1003AB00EF1F70011E144E70EA2202140003020D9F
:1003BB000000020F000001190002170000011601D6
:1003CB0001110100C2B32095FDAF0EAE0D12039EBD
:1003DB00D2B33095FDE4FEFF22309805C298859983
:1003EB0080309904C299C20032E4F5C7F5C5F5C651
:1003FB0075C3FF75C4FF222000FDEFD200F59922D3
:00000001FF
