:0E000000020B6253BCEF32B290323202058323
:03001B0002000AD6
:10002B00020003C2B220CCFDC28CAF1AAE1912056E
:10003B00C7C2B32095FD1205C3D2B32095FD7F50E7
:0E004B007E001205C7D2B23095FD30CCFA22ED
:10006300020007AD07EDD3940240037F0122ED6048
:10007300030200FAC28C900002120351B40104D2AD
:10008300A98002C2A9900001120351B40104D2B99C
:100093008002C2B9120338FED3940340037F0222C5
:1000A300E58954FC4EF589900003120351FFB40116
:1000B30003538E7FEF7003438E80EFB402054389B1
:1000C3000480035389FB900004120351B4010543D8
:1000D3008F018003538FFE900005120390E5F0F526
:1000E3008C900005120390F58A900007120351B417
:1000F3000102D28C7F0022ED64016003020185C2FC
:100103008E900002120351B40104D2AB8002C2AB41
:10011300900001120351B40104D2BB8002C2BB128E
:100123000338FEC3940340037F0222E58954CF4E74
:10013300F589900003120351FFB40103538EBFEFFF
:100143007003438E40EFB402054389408003538913
:10015300BF900004120351B40105438F028003537F
:100163008FFD900005120390E5F0F58D90000512C8
:100173000390F58B900007120351B40102D28E7FD6
:100183000022ED64027074538EEF9000021203514B
:10019300B4010543AF04800353AFFB900003120384
:1001A30051FED3940240037F0222EEB40103538E27
:1001B300FB9000031203517003438E04900003125B
:1001C3000351B40205438E088003538EF790000455
:1001D300120351B40105438F048003538FFB900036
:1001E30005120390FDACF0ECF5D68DD79000071205
:1001F3000351B40103438E107F00227F02227591C5
:100203000FE4F59275B280F5B11205A27F2C800C34
:10021300E518B40C11E517B4020C7FF47E01120546
:10022300C712042580EAE51AB40C11E519B4020CCF
:100233007FF47E011205C712042580EA7B007A0051
:100243007916752B00752C01E4FFFE120477D3E5B4
:10025300169521E5206480F87480984003E4F51630
:10026300E516C394005003E4F516E4F50EF50A759C
:100273000B01750C01F50EF511F50DFB7A00790AEA
:10028300FF120066758CC3758A507590FFC290C2C9
:1002930091D2B7D2AFE4F514F51530954B30CC4875
:1002A3007F057E001205C720943EE4F514F515C2C0
:1002B3008C758CC3758A50D28CE516146012146049
:1002C3001414601614601824047017120541801268
:1002D3001205F8800D1204F180081205198003122B
:1002E300002E2094033094FD20CDAF7F0A7E0012B0
:1002F30005C720CDA50516D3E5169521E520648015
:10030300F87480984003E4F516E4FFFE1205647F59
:10031300647E001205C77B007A007916752B007581
:100323002C01E4FFFE1204B47F647E001205C7753E
:10033300C76002029DBB010689828A83E0225002C4
:10034300E722BBFE02E32289828A83E49322BB0174
:100353000CE58229F582E5833AF583E0225006E92C
:100363002582F8E622BBFE06E92582F8E222E58231
:1003730029F582E5833AF583E49322BB010689825A
:100383008A83F0225002F722BBFE01F322BB011045
:10039300E58229F582E5833AF583E0F5F0A3E022CF
:1003A3005009E92582F886F008E622BBFE0AE92512
:1003B30082F8E2F5F008E222E5832AF583E993F572
:1003C300F0A3E99322EFD3940740028050E4F5BDF4
:1003D300F5BEE5BC54E044084FF5BC00000000E462
:1003E300FBE5BC30E43353BCEFE59730E509E5BDED
:1003F3005403ADBEFC801DAFBD7C00AD07ED7E0098
:100403007802C333CE33CED8F9FFE5BE5403FDEEF5
:10041300FCEF4DFDAF05AE04220BBBFAC47E047F97
:1004230000227F021203C88E1C8F1D7F327E0012B2
:1004330005C77F021203C88E1C8F1DE51D240CF512
:1004430018E51C34FEF5177F327E001205C77F03C3
:100453001203C88E1C8F1D7F327E001205C77F03D7
:100463001203C88E1C8F1DE51D240CF51AE51C34E0
:10047300FEF51922AD07AC06C2AF75C78275C5017B
:100483008CC3AF058FC475C65A75C6A500E5C212E5
:10049300037E0DBD00010C740129F9E43AFAE52C41
:1004A300152C7002152B14452B70D5120609D2AFEB
:1004B30022AD07AC06C2AF75C78275C5028CC3AF48
:1004C300058FC4120338F5C275C65A75C6A5000D4B
:1004D300BD00010C740129F9E43AFAE52C152C70DE
:1004E30002152B14452B70D5120609D2AF22C2B2C6
:1004F30020CCFDC28CAF1AAE191205C7C2B320952A
:10050300FD1205C3D2B27F1E7E001205C7D2B330DF
:1005130095FD30CCFA22C2B220CCFDC28CAF1AAE0C
:10052300191205C7C2B32095FD1205C3D2B37F1EAE
:100533007E001205C7D2B23095FD30CCFA22C2B389
:100543002095FD1205C1C2B220CCFDAF1AAE19121F
:1005530005C7D2B27F327E001205C7D2B3E4FEFFD5
:1005630022AD07AC06C2AF8CC3AF058FC475C7827B
:1005730075C50375C65A75C6A500120609D2AF2202
:10058300C0E0C0D00515E51570020514C394D0E58D
:100593001464809487400375C760D0D0D0E032756F
:1005A3009D0CE5BC549F4420F5BC43BC804397207D
:1005B300D2ADD2BD43BC807FC87E000205C7C28CCA
:1005C300AF18AE177D9B7C03ED1D70011C144C709E
:1005D300F7EF1F70011E144E70EA2202200004027E
:1005E3001700000219000001250002230000012268
:1005F30001011B0100C2B32095FD1205C1D2B33026
:1006030095FDE4FEFF22E4F5C7F5C5F5C675C3FF06
:0406130075C4FF2289
:100B6200787FE4F6D8FD75812C020BA9020201E41C
:100B720093A3F8E493A34003F68001F208DFF48024
:100B820029E493A3F85407240CC8C333C4540F4474
:100B920020C8834004F456800146F6DFE4800B014E
:100BA200020408102040809005DEE47E019360BCC0
:100BB200A3FF543F30E509541FFEE493A360010EE6
:100BC200CF54C025E060A840B8E493A3FAE493A30D
:100BD200F8E493A3C8C582C8CAC583CAF0A3C8C52E
:0C0BE20082C8CAC583CADFE9DEE780BE16
:00000001FF
