:0E000000020B6853BCEF32B290323202058917
:03001B0002000AD6
:10002B00020003C2B22094FDC28CAF1AAE191205A6
:10003B00CDC2B32093FD1205C9D2B32093FD7F50DF
:0E004B007E001205CDD2B23093FD3094FA2221
:10006300020007AD07EDD3940240037F0122ED6048
:10007300030200FAC28C900002120357B40104D2A7
:10008300A98002C2A9900001120357B40104D2B996
:100093008002C2B912033EFED3940340037F0222BF
:1000A300E58954FC4EF589900003120357FFB40110
:1000B30003538E7FEF7003438E80EFB402054389B1
:1000C3000480035389FB900004120357B4010543D2
:1000D3008F018003538FFE900005120396E5F0F520
:1000E3008C900005120396F58A900007120357B40B
:1000F3000102D28C7F0022ED64016003020185C2FC
:100103008E900002120357B40104D2AB8002C2AB3B
:10011300900001120357B40104D2BB8002C2BB1288
:10012300033EFEC3940340037F0222E58954CF4E6E
:10013300F589900003120357FFB40103538EBFEFF9
:100143007003438E40EFB402054389408003538913
:10015300BF900004120357B40105438F0280035379
:100163008FFD900005120396E5F0F58D90000512C2
:100173000396F58B900007120357B40102D28E7FCA
:100183000022ED64027074538EEF90000212035745
:10019300B4010543AF04800353AFFB900003120384
:1001A30057FED3940240037F0222EEB40103538E21
:1001B300FB9000031203577003438E049000031255
:1001C3000357B40205438E088003538EF79000044F
:1001D300120357B40105438F048003538FFB900030
:1001E30005120396FDACF0ECF5D68DD790000712FF
:1001F3000357B40103438E107F00227F02227591BF
:1002030003E4F59275B280F5B175B0FF7590FF12F6
:1002130005A87F2C800CE518B40C11E517B4020C6B
:100223007FF47E011205CD12042B80EAE51AB40C8B
:1002330011E519B4020C7FF47E011205CD12042BD3
:1002430080EA7B007A007916752B00752C01E4FF98
:10025300FE12047DD3E5169521E5206480F87480B1
:10026300984003E4F516E516C394005003E4F5162D
:10027300E4F50EF50A750B01750C01F50EF511F594
:100283000DFB7A00790AFF120066758CC3758A50DC
:100293007590FFC290C291D2B7D2AFE4F514F515B1
:1002A30030934B3094487F057E001205CD20923E5B
:1002B300E4F514F515C28C758CC3758A50D28CE5A0
:1002C3001614601214601414601614601824047059
:1002D3001712054780121205FE800D1204F78008DD
:1002E30012051F800312002E2092033092FD2095E9
:1002F300AF7F0A7E001205CD2095A50516D3E5161E
:100303009521E5206480F87480984003E4F516E4B1
:10031300FFFE12056A7F647E001205CD7B007A0022
:100323007916752B00752C01E4FFFE1204BA7F6465
:100333007E001205CD75C7600202A3BB0106898248
:100343008A83E0225002E722BBFE02E32289828AEB
:1003530083E49322BB010CE58229F582E5833AF518
:1003630083E0225006E92582F8E622BBFE06E92552
:1003730082F8E222E58229F582E5833AF583E49364
:1003830022BB010689828A83F0225002F722BBFE38
:1003930001F322BB0110E58229F582E5833AF58357
:1003A300E0F5F0A3E0225009E92582F886F008E69B
:1003B30022BBFE0AE92582F8E2F5F008E222E58392
:1003C3002AF583E993F5F0A3E99322EFD394074049
:1003D300028050E4F5BDF5BEE5BC54E044084FF59A
:1003E300BC00000000E4FBE5BC30E43353BCEFE5A4
:1003F3009730E509E5BD5403ADBEFC801DAFBD7C60
:1004030000AD07ED7E007802C333CE33CED8F9FFBB
:10041300E5BE5403FDEEFCEF4DFDAF05AE04220B2C
:10042300BBFAC47E047F0022E4FF1203CE8E1C8F2E
:100433001D7F327E001205CDE4FF1203CE8E1C8F8A
:100443001DE51D240CF518E51C34FEF5177F327EDF
:10045300001205CD7F011203CE8E1C8F1D7F327ECD
:10046300001205CD7F011203CE8E1C8F1DE51D24C6
:100473000CF51AE51C34FEF51922AD07AC06C2AF24
:1004830075C78275C5018CC3AF058FC475C65A7510
:10049300C6A500E5C21203840DBD00010C74012939
:1004A300F9E43AFAE52C152C7002152B14452B7040
:1004B300D512060FD2AF22AD07AC06C2AF75C78205
:1004C30075C5028CC3AF058FC412033EF5C275C652
:1004D3005A75C6A5000DBD00010C740129F9E43A53
:1004E300FAE52C152C7002152B14452B70D512062A
:1004F3000FD2AF22C2B22094FDC28CAF1AAE191232
:1005030005CDC2B32093FD1205C9D2B27F1E7E0072
:100513001205CDD2B33093FD3094FA22C2B22094A7
:10052300FDC28CAF1AAE191205CDC2B32093FD12D2
:1005330005C9D2B37F1E7E001205CDD2B23093FD22
:100543003094FA22C2B32093FD1205C7C2B220949D
:10055300FDAF1AAE191205CDD2B27F327E0012055D
:10056300CDD2B3E4FEFF22AD07AC06C2AF8CC3AF5E
:10057300058FC475C78275C50375C65A75C6A500B0
:1005830012060FD2AF22C0E0C0D00515E5157002E8
:100593000514C394E8E51464809483400375C7602D
:1005A300D0D0D0E032759D03E5BC549F4420F5BC08
:1005B30043BC80439720D2ADD2BD43BC807FC87E6D
:1005C300000205CDC28CAF18AE177D9B7C03ED1DD9
:1005D30070011C144C70F7EF1F70011E144E70EA6B
:1005E3002202200004021700000219000001250066
:1005F30002230000012201011B0100C2B32093FD6D
:100603001205C7D2B33093FDE4FEFF22E4F5C7F52C
:0A061300C5F5C675C3FF75C4FF22CC
:100B6800787FE4F6D8FD75812C020BAF020201E410
:100B780093A3F8E493A34003F68001F208DFF4801E
:100B880029E493A3F85407240CC8C333C4540F446E
:100B980020C8834004F456800146F6DFE4800B0148
:100BA800020408102040809005E4E47E019360BCB4
:100BB800A3FF543F30E509541FFEE493A360010EE0
:100BC800CF54C025E060A840B8E493A3FAE493A307
:100BD800F8E493A3C8C582C8CAC583CAF0A3C8C528
:0C0BE80082C8CAC583CADFE9DEE780BE10
:00000001FF
